:10000000010000000D900D909C75020001000000A1
:1000100000102000A24B478C0000000000000000F0
:1000200000000000000000000000000000000000D0
:100030000000000000000000000000000D900D9086
:10004000A55A0000002020080000008000000000E9
:1000500000000000000000000000000000000000A0
:100060000000000000000000000000000000000090
:100070000000000000000000000000000000000080
:100080000000000000000000000000000000000070
:1010000080AF01008DAC200841AC200841AC200825
:1010100041AC200841AC200841AC20080000000091
:101020000000000000000000000000008196200881
:1010300041AC200800000000D1962008A77D2008C0
:1010400041AC200841AC200841AC200841AC20084C
:1010500041AC200841AC200841AC200841AC20083C
:1010600041AC200841AC20086906000079D5200871
:10107000CDB42008352A210841AC200841AC200815
:1010800041AC200841AC20088D1D2108311E2108EB
:1010900041AC2008251D210809FE200841AC20088C
:1010A00041AC200841AC200841AC200841AC2008EC
:1010B000551521087515210880AF010041AC2008A5
:1010C0008DAC2008C105000041AC200841AC2008CF
:1010D00041AC200841AC2008B1B42008C1B42008BC
:1010E000BDAB200841AC20081D2A21082393976935
:1010F00041AC200841AC200811B2200841AC2008C6
:1011000041AC200841AC2008F51C21080D1D210828
:10111000351C21084D1C2108651C21087D1C210857
:10112000951C2108AD1C2108C51C2108DD1C2108C7
:1011300041AC2008292A210841AC200841AC2008F4
:1011400041AC200841AC200841AC200841AC20084B
:1011500041AC200841AC200841AC200841AC20083B
:1011600041AC200841AC20082538210800000000CF
:10117000000000000000000000000000000000006F
:101180000348044B834202D0034B03B11847704716
:10119000281D0000281D0000000000000548064B27
:1011A0001B1AD90F01EBA301491002D0034B03B165
:1011B00018477047281D0000281D0000000000008F
:1011C00010B5064C237843B9FFF7DAFF044B13B18F
:1011D0000448AFF300800123237010BD281D0000D8
:1011E000000000002061220808B5054B1BB105492D
:1011F0000548AFF30080BDE80840FFF7CFBF00BF50
:10120000000000002C1D00002061220830B585B0D0
:1012100007F06EFD834C2060032000F08BFA98B13C
:10122000814800F0A7FA00F0B3FA804800F0A2FA73
:101230007F4800F09FFA00F0DBFA7E4800F09AFA4F
:1012400021687D4800F096FA00217C4A7C48ADF880
:101250000C10CDE9011115F065FE044680B1794D01
:101260002B684FF0FF31186905F06CFF7648214676
:101270001DF0BAFA2B68186905F089FF05B030BD7A
:10128000032000F057FA90B1674800F073FA00F0BD
:101290007FFA664800F06EFA654800F06BFA00F0DD
:1012A000A7FA644800F066FA684800F063FA01A8FB
:1012B00015F0E4FF0446002838D0012000F03AFA87
:1012C00098B1594800F056FA00F062FA604800F010
:1012D00051FA604800F04EFA00F08AFA554800F0E2
:1012E00049FA5D48214600F045FA002211460120E6
:1012F00005F087FF594B1860E0B9012000F01AFA99
:101300000028BBD0484800F035FA00F041FA5048B8
:1013100000F030FA4F4800F02DFA00F069FA454825
:1013200000F028FA4E4800F025FAA7E701A808F0D7
:1013300007FBDAE700221146012005F062FF494B66
:101340001860B0B9012000F0F5F9002896D03648B1
:1013500000F010FA00F01CFA3D4800F00BFA3D488E
:1013600000F008FA00F044FA324800F003FA3E4870
:10137000D9E73E4A3E48002105F070FDB0B9012092
:1013800000F0D8F990B1284800F0F4F900F000FA24
:101390002F4800F0EFF92F4800F0ECF900F028FAA0
:1013A000244800F0E7F9334800F0E4F900F072FC5B
:1013B000314A3248002105F051FDB0B9012000F05A
:1013C000B9F990B1184800F0D5F900F0E1F92048DA
:1013D00000F0D0F91F4800F0CDF900F009FA1548E7
:1013E00000F0C8F9264800F0C5F9002003F08EFE91
:1013F000012003F08BFE022003F088FE02F01CF8AF
:1014000007F084FC02F0C4FB00F066F803F0E6F895
:1014100004F05CF801F018FD01F088FA092002F0F0
:1014200077F8FEE710000000AA422208881F220871
:10143000941F22089D1F22087A202208C1872108B4
:1014400050222208287501009A202208CE20220866
:10145000F5202208012122080B212208481D000046
:101460003B212208441D00005D2122080822220899
:10147000192F20087E212208E42122089DA120089E
:101480009B212208024A0348002105F0E7BC00BF67
:101490002C2222080D22200803281AD8DFE800F0A9
:1014A00002080E140B4B1A788A4212D0197070473A
:1014B000084B5A788A420CD059707047054B9A787D
:1014C0008A4206D099707047024BDA788A4218BF78
:1014D000D97070471400000010B535488AB00EF07E
:1014E0006BF90A236422CDE9043222211623CDE9C7
:1014F000023105230221CDE900311922082307A872
:101500000EF046FF0446B8B1012000F013F998B17F
:10151000284800F02FF900F03BF9274800F02AF99D
:10152000264800F027F900F063F9254800F022F979
:101530002448214600F01EF907A80EF0EDFE0446EF
:10154000B8B1012000F0F6F898B11A4800F012F98D
:1015500000F01EF9184800F00DF9184800F00AF9DB
:1015600000F046F9164800F005F91748214600F04A
:1015700001F9012006F03FFB144B1860B0B90120BF
:1015800000F0D8F890B10B4800F0F4F800F000F942
:10159000094800F0EFF8094800F0ECF800F028F9ED
:1015A000074800F0E7F80A4800F0E4F80AB010BD78
:1015B0001C820424AA422208F520220801212208C4
:1015C0009D1F22088C222208DC222208501D0000C8
:1015D0002523220830B51A4D0446286885B068B323
:1015E0004FF0FF3106F084FC01A920460EF0F0FE1A
:1015F00001A80EF091FE0446B8B1012000F09AF85F
:1016000098B1104800F0B6F800F0C2F80E4800F0AB
:10161000B1F80E4800F0AEF800F0EAF80C4800F01F
:10162000A9F80C48214600F0A5F80B4B28680122C8
:101630001A7000231A46194606F0EDF905B030BDC0
:10164000501D0000AA422208F5202208012122088C
:101650009D1F2208DC2222084D1D00001FB501A895
:101660000EF072FE0446B8B1012000F063F898B1A4
:101670000D4800F07FF800F08BF80C4800F07AF885
:101680000B4800F077F800F0B3F80A4800F072F861
:101690000948214600F06EF8694601A80EF004FFE3
:1016A000009804B010BD00BFAA422208F52022080D
:1016B000012122089D1F22084F23220808B5FFF7A9
:1016C000CDFF4FF47A71A0FB010108BD40BA80B292
:1016D000704740BA80B2704700BA7047034608BAF4
:1016E00019BA7047FFF7FABF30B501444FF6FF73E0
:1016F0004AF20104814202D158BA80B230BD10F8DA
:10170000012B5340082203F001055B080DB1634033
:101710009BB2013A92B2002AF5D1EBE708B505F089
:1017200045F8FFF7AFFE05F097F800B908BD05F0E2
:101730003CF8F8E70B4B1B78024683B10A4B1B7849
:10174000834234BF00200120084B1B7833B1084B83
:101750001B78134113F0010F08BF002070470120D0
:10176000F2E700BF1A00000019000000541D00003D
:10177000180000000FB407B504A951F8040B01913B
:101780001DF03AF903B05DF804EB04B070470000B7
:1017900073B505F0B1F90E46054605F0C7F94FF4EB
:1017A0007A740246A5FB040104FB061100231BF01A
:1017B000DDFF3C21B0FBF4F304FB1304B3FBF1F6B3
:1017C000009401FB16334EF66022B0FBF2F2B2FB3E
:1017D000F1F501FB15220449B0FBF1F10348FFF7D5
:1017E000C9FF02B070BD00BF80EE3600982322080A
:1017F0007047704770477047704708B508F052FC53
:101800000DF0F6F911F01AF807F082FFBDE8084074
:1018100008F0C2BB704705F0F9BA08B500F00AF845
:1018200000F01AF8BDE8084000F01CB87047704797
:101830007047000008B5054810F05EF8044810F045
:101840005BF8BDE80840034810F056B82D000000D2
:10185000240000001B000000014808F05DBE00BF2E
:10186000BB23220808B5044808F045FFBDE808403E
:10187000024808F040BF00BFC3232208C02322084B
:10188000034901220B68824023EA02030B60704780
:10189000281E0000044A0123116883400B43136093
:1018A000024B186805F030BD281E0000441D0000E2
:1018B00010B40A4B01461A4611F8014B02F8014BCD
:1018C000D0F80140C3F80140898891805DF8044B4D
:1018D000828B1A810120FFF7DDBF00BF1E1E0000B2
:1018E000064B00F10C0250F8041B43F8041B904215
:1018F000F9D102881A801820FFF7CCBF641D0000C0
:10190000064B00F10C0250F8041B43F8041B9042F4
:10191000F9D102881A801920FFF7BCBF561D0000BC
:10192000044B02681A6082889A8082799A71022038
:10193000FFF7B0BF171E0000044B02681A60426830
:101940005A6002891A810120FFF7A4BF1E1E000001
:1019500010B501460446074812F053FD064A2368B5
:10196000136063685360A3689360BDE8104017205C
:10197000FFF790BF861D0000721D000008B50649E4
:1019800003680B60436805484B6012F03AFDBDE800
:1019900008401620FFF77EBF7E1D0000861D000058
:1019A0002DE9F0439D4B1A780B899A42A3B00C465F
:1019B0004AD1CB7A323B062B00F20F81DFE813F0DD
:1019C00037000700E1009900AD00C700F600944D14
:1019D0002B684FF0FF31186905F0B4FB91481CF0FB
:1019E0006BFF2B68186905F0D2FB0320FFF7A2FEFE
:1019F00090B18D48FFF7BEFEFFF7CAFE8B48FFF798
:101A0000B9FE8B48FFF7B6FEFFF7F2FE8948FFF7F5
:101A1000B1FE8948FFF7AEFE884B894800211422A9
:101A200019701DF0EBF8042007F078FB0CE032226F
:101A3000002184481DF0E2F8824804F10E011DF0F7
:101A4000F0F90D20FFF726FF7F4B22891B889A4271
:101A50004CD10320FFF76EFE90B17348FFF78AFE6A
:101A6000FFF796FE7148FFF785FE7148FFF782FE8B
:101A7000FFF7BEFE6F48FFF77DFE7448FFF77AFE62
:101A80000320FFF757FE40B1A37A04F10A06002BAA
:101A900040F0BC806E48FFF76DFEA57A04F10B01A3
:101AA0002A460DF105001DF01BFA6A488DF8045016
:101AB000006800230A2201A905F0ADFFB0B901209A
:101AC000FFF738FE90B15848FFF754FEFFF760FE6D
:101AD0006148FFF74FFE6148FFF74CFEFFF788FEB5
:101AE0005448FFF747FE5E48FFF744FE23B0BDE8C9
:101AF000F0838B7B5B4A4A4D303B13702B684FF071
:101B0000FF31186905F01EFB57481CF0D5FE2B6805
:101B1000186905F03CFB0E2094E71422404D48481C
:101B200000211DF06BF804F10E0150481DF079F909
:101B30002B684FF0FF31186905F004FB4C481CF08E
:101B4000BBFE2B68186905F022FB05206CE7344DBD
:101B50002B684FF0FF31186905F0F4FA45481CF086
:101B6000ABFE2B68186905F012FB354814220021E2
:101B70001DF044F8404B1B780BB1102062E7112098
:101B800060E7274D2B684FF0FF31186905F0DAFA4E
:101B90003A481CF091FE2B68186905F0F8FA2848BD
:101BA000142200211DF02AF80B203DE71422002109
:101BB00023481B4D1DF022F81320FFF76BFE2B6806
:101BC0004FF0FF31186905F0BDFA2D481CF074FE86
:101BD0002B68186905F0DBFA36E7114D2B684FF0DA
:101BE000FF31186905F0AEFA2648EFE74846FFF7DF
:101BF000C1FD4046FFF7BEFD16F8011F3846FFF74E
:101C0000B9FDA37A01359D42F0D343E7DFF87C802C
:101C10001D4FDFF87C900025EBE700BF161E00008B
:101C200028750100C6232208AA422208881F22081C
:101C3000941F22089D1F2208DC232208DC000000DC
:101C40002C1E0000DF1D0000E41F0000812422087C
:101C5000BA46220848310000F52022080121220856
:101C6000912422089C1D0000F42322089D1D0000E1
:101C700008242208192422086C6401003624220852
:101C8000572422086A24220853252208BC46220829
:101C9000B73422082DE9F041AAB0864B22931B22CB
:101CA000002123A81CF0AAFF834BDFF83482002414
:101CB0001C60CDE91944CDE91B441594ADF858409A
:101CC00000F070FC7D4B7E4A7E490594CDE90343CC
:101CD0007D4B02937D4B2046CDE90043234611F016
:101CE000D1FC7B48214611F0E7FC7A4B0894CDE902
:101CF0000643794B2246CDE902432146234620463E
:101D00001DADCDE90B44CDE90944CDE90444CDE94D
:101D10000044CDE91144CDE90F44CDE90D4411F063
:101D2000D5FC6E49132228461CF08EFF6C498DF8B5
:101D3000874028461CF0ACFF15AE3746002800F05F
:101D40009280062C40F083800320FFF7F3FC08B359
:101D50006448FFF70FFDFFF71BFD6348FFF70AFD1F
:101D60006248FFF707FDFFF743FD6148FFF702FDFB
:101D70009DF8593002939DF8583001939DF85730E3
:101D800000939DF855209DF856309DF85410594801
:101D9000FFF7F0FC9DF8593004939DF858300393F9
:101DA0009DF8573002939DF8563001939DF85530B9
:101DB0000093514A9DF85430102119A81CF084FD5D
:101DC0000320FFF7B7FC98B14648FFF7D3FCFFF7B5
:101DD000DFFC4548FFF7CEFC4448FFF7CBFCFFF79C
:101DE00007FD4348FFF7C6FC444819A9FFF7C2FCAA
:101DF00019A812F003FA384612F0F0F911238DF801
:101E00008B3009238DF88C300DF18D0419AB1A46F7
:101E100003CAAA4220606160134604F10804F6D1A7
:101E2000374C152122A810F01FFF10F0EFFE236899
:101E30004FF0FF31186905F085F932481CF03CFD80
:101E40002368186905F0A3F92AB0BDE8F0811022D3
:101E500000211BF079FF414606F8010B00200134F8
:101E60001CF016FF6AE7062C3FF46EAF0120FFF767
:101E700061FC90B11B48FFF77DFCFFF789FC22480D
:101E8000FFF778FC2148FFF775FCFFF7B1FC184815
:101E9000FFF770FC1E48FFF76DFC1E4A1068928821
:101EA000179017ABADF8602093E803001590ADF8DC
:101EB000581049E702010600281E00005129200899
:101EC0002129200839292008B128200801292008C3
:101ED000E12820087D292008A1292008C324220800
:101EE000D5242208AA422208881F2208941F22080B
:101EF0009D1F2208072522083C2522085825220874
:101F0000287501006E252208F520220801212208EB
:101F1000D7242208DE2622082DE9F047002496B0B7
:101F20003E22214606A805941CF068FEB94BBA4E25
:101F30001D8828461BF0E0FD306080B9B74C23684F
:101F40004FF0FF31186905F0FDF8B5481CF0B4FCFE
:101F50002368186905F01BF916B0BDE8F0872A461A
:101F600021461CF04BFEAF4FDFF8F8823C6814F0BE
:101F70000104FBD1234601220133202B06D1D8F8DE
:101F800000004FF0FF3105F08DF9EFE7396802FAF4
:101F900003F00842F0D0013B182BE7D801A252F819
:101FA00023F000BF09302008B7302008693220082C
:101FB0006D2F20086D2F20086D2F20086D2F200811
:101FC0006D2F20086D2F20086D2F20086D2F200801
:101FD0006D2F2008F3312008FB312008AB31200899
:101FE0006931200897312008C731200815312008B1
:101FF000DD312008093320088F332008933320086F
:1020000097332008E13320080120FFF739FC864888
:10201000E82110F0F9FE044670B1804D2B684FF0B6
:10202000FF31186905F08EF8804821461CF0DCFB72
:102030002B68186905F0ABF84FF4C87318220093A9
:1020400079480023114610F02BFE044670B1734D01
:102050002B684FF0FF31186905F074F87448214679
:102060001CF0C2FB2B68186905F091F8012000F004
:10207000FFFB022001F04CFA0320FFF75BFB002876
:102080003FF474AF6B48FFF775FBFFF781FB6A48BD
:10209000FFF770FB6948FFF76DFBFFF7A9FB684886
:1020A000FFF768FB6049674812F0ABF901466648E4
:1020B000FFF760FB5AE7594D0220FFF7E1FB2B6861
:1020C0004FF0FF31186905F03DF860495D4812F0A6
:1020D00098F901465E481CF087FB2B68186905F0EB
:1020E00056F810F093FD04460028FAD12B684FF003
:1020F000FF31186905F026F856481CF0DDFB2B6807
:10210000186905F044F8204600F0B2FB042001F005
:10211000FFF92BE700241320CDE90244ADF810406D
:10212000FFF7AEFB4222214605A81CF067FD02A87E
:1021300015F0A4F800287FF419AF40F60823ADF895
:10214000143002AB03CB1B88ADF81E30424BCDF8E8
:102150001600CDF81A10188805AA422110F0E8FDE3
:1021600002A807F0EDFB01E71020FFF789FB4022F2
:1021700000210DF116001CF041FD384B1B788DF845
:10218000153007238DF81430334B05AA18884221E7
:1021900010F0CEFDEAE61120FFF772FB412200218C
:1021A0000DF115001CF02AFDEBE70F20FFF768FB8F
:1021B000402200210DF116001CF020FD4FF4827327
:1021C000ADF81430E0E71220FFF75AFB412200215E
:1021D0000DF115001CF012FD0223D3E71420FFF7C8
:1021E0004FFB412200210DF115001CF007FD0123DA
:1021F000C8E70D20FFF744FBB8E60E20FFF740FBD1
:10220000174B1B78002B7FF4B1AE052006F086FF3C
:10221000ACE600BFDE000000981D0000287501003C
:102220008C252208281E00001F1E0000B62522084B
:10223000DF252208AA422208881F2208941F2208AC
:102240009D1F2208861D000011262208171E00006F
:102250002F26220857262208141E00006C64010055
:102260009C1D0000441D00000320FFF709FB4122D4
:1022700000210DF115001CF0C1FC03238DF8143072
:102280003368DFF880911B688DF81530554B05AA2F
:102290001888422110F04CFDD6F800A0DAF8003082
:1022A000E5B2AB4204F101040ED84F4C23684FF065
:1022B000FF31186904F046FF4C481CF0FDFA236812
:1022C000186904F064FF51E64222002105A81CF0C1
:1022D00095FC2E235D430AEB05030C355B7A8DF8E4
:1022E00014300AEB05012C230DF116008DF8153082
:1022F0001CF097FDB9F8000005AA422110F018FD66
:102300000A2004F02EFEC7E7394B002515209C68F3
:102310000295ADF80C50FFF7B3FA29463F220DF1B4
:1023200017001CF06BFC4FF48173ADF8143002A958
:102330002C2301208DF8163014F060FFF8B12C2307
:102340008DF81D30C4F307238DF81F30C4F3074305
:102350008DF81E408DF82030C4F30764214B8DF8B2
:102360002140214C188805AA422110F0E1FC236885
:102370004FF0FF31186904F0E5FE1E489DE7029812
:10238000BDF80C30CDF81700ADF81B30D7E716209C
:1023900030E717202EE71820FFF772FA164B9B79CB
:1023A0009B067FF5E3AD15484FF4A472FB2110F0B6
:1023B0008FFC044600283FF4D9AD0B4D2B684FF03D
:1023C000FF31186904F0BEFE21460D481CF00CFADE
:1023D0002B68186904F0DBFE1820FFF75BFAC5E5EF
:1023E000192007E7141E0000287501006E26220838
:1023F000D863010091262208641D00001F1E000002
:10240000A9262208121E0000013870B50D46144698
:1024100004281BD8DFE800F00312141618000C4E35
:10242000002130681CF0EAFB3068224629461CF087
:1024300057FD0320BDE87040FFF72CBA1520F9E7DF
:102440001420F7E70F20F5E71220F3E770BD00BF77
:10245000981D000003681BBA4B6083885BBA0B8130
:10246000C3885BBA4B81437A0B73037A4B73C37A8D
:102470008B73837ACB73C37B0B74837B4B74437BEB
:102480008B74037BCB7470472DE9F041C4B00C46CC
:102490009DF828810746164600214FF48872684649
:1024A0001D461CF0ABFB022342F60302B8F1100FED
:1024B000ADF8044000978DF80830ADF80C208DF889
:1024C0001C3009AC13D1142329460DF12200ADF8BC
:1024D0001E308DF8206011F00FFF4BAB0FCB84E85E
:1024E0000F00684610F01FFC44B0BDE8F0810423E3
:1024F00029460DF12200ADF81E308DF8206011F054
:10250000FBFEBDF82C11204611F0F6FEE9E70000B5
:1025100082B02DE9F041C4B00E464AA981E80C0012
:1025200007464FF48872002168464AAD9DF83C8109
:102530001CF064FB0FCD02AC0FC42B68184923605C
:10254000E62208A8ADF81E200097ADF804608DF8CB
:102550001C801CF0C5FC684610F0E5FB18F0100F5D
:1025600018D04FF48872002168461CF047FB42F6F1
:10257000021202230136ADF80C2068460A220097A9
:10258000ADF804608DF808308DF81C20ADF81E30D1
:1025900010F0C9FB44B0BDE8F04102B0704700BF85
:1025A000E61F00002DE9F0418CB006AE0023069333
:1025B00073609B4B08AA03F1100715461868596809
:1025C000144603C40833BB422246F7D19549964CC2
:1025D0002846FFF73FFF10230B7001960B6900930D
:1025E0000FC910F088FB069B23600320BDF81C3048
:1025F000A380FFF79FF898B18C48FFF7BBF8FFF76F
:10260000C7F88B48FFF7B6F88A48FFF7B3F8FFF72B
:10261000EFF88948FFF7AEF8A1888848FFF7AAF8D5
:10262000874B2E4603F1100718685968324603C2DB
:102630000833BB421646F7D1DFF82C8210234146FF
:10264000284688F80030FFF705FFA188474601F1CA
:10265000020E01F1010C0FCF6E460FC63B683360CE
:102660001FFA8CF11FFA8EF320680822FFF70CFF87
:102670000823A6880393434493E807008DE80700E6
:10268000023698E80C002068B1B2FFF741FFA3883A
:102690006C4E023303203380FFF74CF898B1634847
:1026A000FFF768F8FFF774F86148FFF763F86148CF
:1026B000FFF760F8FFF79CF85F48FFF75BF8318899
:1026C0006148FFF757F8614B2E4603F11007186871
:1026D0005968324603C20833BB421646F7D1DFF8C9
:1026E0008C8110234146284688F80030FFF7B2FE5F
:1026F000A188474601F1040E01F1030C0FCF6E468D
:102700000FC63B6833601FFA8CF11FFA8EF3206806
:102710000222FFF7B9FE0223A688039308F10803FB
:1027200093E807008DE80700043698E80C0020685D
:10273000B1B2FFF7EDFEA388454E0433032033808A
:10274000FEF7F8FF98B13948FFF714F8FFF720F8C3
:102750003748FFF70FF83748FFF70CF8FFF748F84E
:102760003548FFF707F831883A48FFF703F83A4B46
:102770002E4603F1100718685968324603C2083321
:10278000BB421646F7D1354F1023284639463B70D9
:10279000FFF760FEA1883E4601F1060E01F1050C2F
:1027A0000FCE6D460FC533682B601FFA8CF11FFAF0
:1027B0008EF320681222FFF767FE1223A588039389
:1027C00007F1080393E807008DE80700063597E84E
:1027D0000C002068A9B2FFF79BFEA388204D0633AA
:1027E00003202B80FEF7A6FFB0B11048FEF7C2FF12
:1027F000FEF7CEFF0E48FEF7BDFF0E48FEF7BAFF0C
:10280000FEF7F6FF0C48FEF7B5FF298815480CB017
:10281000BDE8F041FEF7AEBF0CB0BDE8F08100BFEF
:102820009B272208CC1F0000881F0000AA42220814
:10283000881F2208941F22089D1F2208E4262208D0
:102840004D272208E41F00000A2722085E272208DD
:10285000E21F00001F2722086F272208901F000098
:10286000E01F000034272208A41F0000B81F00004A
:10287000014B1870704700BF841F000038B5084D29
:10288000284611F0DFFC2C7844B1064B2246691C27
:1028900018461CF025FB0022025538BD0248FCE713
:1028A000401F0000741F00008027220810B5174B3E
:1028B0001B78012B0C460FD1154B0A4601461846D2
:1028C0001CF00EFBE1B2134B80F8FF100246BDE88E
:1028D0001040188810F02CBA0120FEF72BFFA0B191
:1028E0000D48FEF747FFFEF753FF0C48FEF742FF87
:1028F0000B48FEF73FFFFEF77BFF0A48FEF73AFF63
:10290000BDE810400848FEF735BF10BD841F000029
:10291000401E0000E21F0000AA422208F520220803
:10292000012122089D1F22088827220808B500F0EF
:1029300049FB002008BD00002DE9F04FDFF8F0B1A1
:102940006C4C6D4EA3B0DBF800000A2201A905F023
:1029500030FA0128F7D19DF80530012B17D0FEF78A
:10296000E9FEA0B12046FEF705FFFEF711FF304655
:10297000FEF700FF6148FEF7FDFEFEF739FF6048F5
:10298000FEF7F8FE9DF805105E48FEF7F3FE9DF891
:1029900006509DF80430AB4219D00120FEF7CAFE64
:1029A000A8B12046FEF7E6FEFEF7F2FE3046FEF73F
:1029B000E1FE5248FEF7DEFEFEF71AFF5048FEF732
:1029C000D9FE9DF8041050482A46FEF7D3FE9DF824
:1029D000041001F188036B44023989B20DF105003E
:1029E00033F8857CFEF780FE8742054618D001202B
:1029F000FEF7A0FEA0B12046FEF7BCFEFEF7C8FE23
:102A00003046FEF7B7FE3D48FEF7B4FEFEF7F0FE97
:102A10003B48FEF7AFFE3D482A463946FEF7AAFE80
:102A20000320FEF787FEA0B12046FEF7A3FEFEF7C7
:102A3000AFFE3748FEF79EFE3648FEF79BFEFEF7D8
:102A4000D7FE2F48FEF796FE9DF808103248FEF795
:102A500091FE324D002795F800909DF808304B45C7
:102A600041D1D5F80480B8F1000F3CD095F808A00A
:102A70009DF80430534519D00120FEF75BFEA8B144
:102A80002046FEF777FEFEF783FE3046FEF772FE25
:102A90001A48FEF76FFEFEF7ABFE1948FEF76AFE16
:102AA0009DF804101E485246FEF764FE0420FEF70F
:102AB00041FE98B12046FEF75DFEFEF769FE19481B
:102AC000FEF758FE1848FEF755FEFEF791FE0C483B
:102AD000FEF750FE15484946FEF74CFE9DF80410DF
:102AE0000DF10500C0470137112F05F10C05B2D1DA
:102AF00029E700BFAA422208F52022080121220866
:102B00009D1F2208AB27220811282208C627220869
:102B1000881F2208941F2208ED2722087C292208FA
:102B200006282208432822084F282208592822086C
:102B30004831000008B54179007900F01BFB002006
:102B400008BD000007B5094A112306216846CDE9F2
:102B50000023FEF7C9FD0821ADF806006846FFF71F
:102B6000A5FE002003B05DF804FB00BF0208F20BD5
:102B700007B5094A112306216846CDE90023FEF76F
:102B8000B3FD0821ADF806006846FFF78FFE002070
:102B900003B05DF804FB00BF0208F20A07B5094A5A
:102BA000112306216846CDE90023FEF79DFD08218B
:102BB000ADF806006846FFF779FE002003B05DF827
:102BC00004FB00BF0208F20D07B5094A11230621D4
:102BD0006846CDE90023FEF787FD0821ADF8060021
:102BE0006846FFF763FE002003B05DF804FB00BFFA
:102BF0000208F20C13B504790420FEF79BFD98B18E
:102C00001448FEF7B7FDFEF7C3FD1348FEF7B2FD0B
:102C10001248FEF7AFFDFEF7EBFD1148FEF7AAFDE7
:102C200010482146FEF7A6FD0F4B00930024112308
:102C300005216846ADF804308DF80640FEF754FDD6
:102C40000721ADF805006846FFF730FE204602B0C8
:102C500010BD00BFAA422208432822084F2822089C
:102C60009D1F2208782822080207F21A13B504468D
:102C70000420FEF75FFD98B11248FEF77BFDFEF7DA
:102C800087FD1148FEF776FD1048FEF773FDFEF74D
:102C9000AFFD0F48FEF76EFD21790E48FEF76AFD85
:102CA0000D4A112306216846CDE90023FEF71CFDDD
:102CB0000821ADF806006846FFF7F8FD002002B0D5
:102CC00010BD00BFAA422208432822084F2822082C
:102CD0009D1F2208892822080208F20400B58DB041
:102CE0002B2200210DF105001BF088FF02238DF837
:102CF00000308DF8033011238DF804300123302289
:102D00008DF808308DF80D30144B8DF80120F2222B
:102D10008DF8022003F10C010DF10E0253F8040BA3
:102D200042F8040B8B42F9D11B781370FFF7A6FD14
:102D3000D0F80330CDF81B30D0F80730CDF81F3075
:102D40002E216846FEF7D0FC3021ADF82E006846F3
:102D5000FFF7ACFD00200DB05DF804FB9E282208B3
:102D600010B5104A86B0002411236846CDE902232D
:102D700004948DF8144011F06AFA0098BDF80430FC
:102D8000CDF80D000B2102A8ADF81130FEF7ACFC18
:102D90000D21ADF8130002A8FFF788FD204606B00C
:102DA00010BD00BF020DF20108B500F075F900205A
:102DB00008BD000010B5124A86B000241123CDE9E9
:102DC00002230494ADF814408DF81640FEF776FC0B
:102DD000FEF784FCCDE900016B4603CBCDF80D0076
:102DE000CDF8111018460D21FEF77EFC0F21ADF82D
:102DF000150002A8FFF75AFD204606B010BD00BF1F
:102E0000020FF20507B5034640689968FEF76AFCB1
:102E10004FF47A7200231AF0A9FCFEF7DBFB094A93
:102E2000112306216846CDE90023FEF75DFC082149
:102E3000ADF806006846FFF739FD002003B05DF8E5
:102E400004FB00BF0208F20630B5414B1A7885B08A
:102E5000002A7BD10125812105201D7004F07DFD14
:102E60003C4C2060D0B92846FEF764FC00286DD0A9
:102E70003948FEF77FFCFEF78BFC3848FEF77AFCFA
:102E80003748FEF777FCFEF7B3FC3648FEF772FCD6
:102E9000354805B0BDE83040FEF76CBC0320FEF7B6
:102EA00049FC90B12C48FEF765FCFEF771FC2F48F9
:102EB000FEF760FC2E48FEF75DFCFEF799FC294802
:102EC000FEF758FC2B48FEF755FC2B4B02932B4B7F
:102ED00001931B2300932A492A4800234FF4806260
:102EE0001EF032F8E0B90120FEF724FC90B11A4838
:102EF000FEF740FCFEF74CFC1848FEF73BFC184878
:102F0000FEF738FCFEF774FC1648FEF733FC1E484B
:102F1000FEF730FC206805B0BDE8304005F064B92C
:102F20000320FEF707FC88B10B48FEF723FCFEF7F1
:102F30002FFC0E48FEF71EFC0D48FEF71BFCFEF7AB
:102F400057FC0848FEF716FC1048A2E705B030BD54
:102F50004431000048310000AA422208F52022082E
:102F6000012122089D1F2208AC282208881F220860
:102F7000941F2208D4282208CC20000044210000FD
:102F800000292208393920081B292208492922084A
:102F900007B5002301930A4B01A9186804F0A9FEA4
:102FA000019B4BB14FF0E0234FF08052C3F8042D4A
:102FB000BFF34F8FBFF36F8F03B05DF804FB00BF0B
:102FC000C871000030B5032285B00021012004F053
:102FD000C4FC244C206070B1234B00930023234891
:102FE000234D1A464FF47A7105F0D4FA286030B9AF
:102FF000206805F0F9F84FF0FF3005B030BD1D4BEB
:1030000002931D4B01931A2300931C491C48002373
:103010004FF480521DF098FF08BB0120FEF78AFB99
:1030200090B11848FEF7A6FBFEF7B2FB1648FEF774
:10303000A1FB1648FEF79EFBFEF7DAFB1448FEF7ED
:1030400099FB1448FEF796FB206805F0CDF80023A5
:10305000009328681A46052105F0CAFACBE700203C
:10306000CBE700BFC8710000913F2008482A220822
:10307000CC7100004C310000C4310000582A2208F5
:1030800015412008AA422208F52022080121220821
:103090009D1F2208672A220810B51D4A88B01123F7
:1030A000CDE9012300244FF48033CDE9034340F6FA
:1030B0000A704FF4AC43CDE90534ADF81C40FEF77F
:1030C00005FBADF816006420FEF700FBADF8180014
:1030D00041F61460FEF7FAFAADF81A00FFF7CEFBDE
:1030E000D0F80630CDF80930D0F80A30CDF80D30E0
:1030F0001821062301A88DF81130FEF7F5FA1A21E0
:10310000ADF81C0001A8FFF7D1FB204608B010BDA8
:10311000021AF21683B5DFF85480DFF85490124E8D
:10312000D8F800004FF0FF3104F0E2FE0128044619
:10313000F6D1FFF7B1FFD9F80020002AF0D0002522
:103140004FF47A712B464A4330680095042105F00C
:103150004FFA37681DF0A8FE009502462B4621461F
:10316000384605F045FADBE7CC710000C871000075
:10317000C4710000F02907B5034604D8012815D012
:10318000022803D078B14FF0FF3009E00D4A002348
:1031900013600D481A460068194604F03CFC0020F4
:1031A00003B05DF804FB074A1160F2E7054A0748DF
:1031B0000023136000931A460321006805F018FAF3
:1031C000EDE700BFC4710000C8710000CC710000C1
:1031D0000F4A1378052B17D850781BB9392815D901
:1031E0000DF044BE5A1E012A05D9032B08D0042B2A
:1031F00008D0062800E0102834BF002021207047A6
:103200000A28F9E70C28F7E721207047184670478D
:103210005000000007B50123CDE90033044A0548FA
:1032200000230A2103F0D4FC03B05DF804FB00BFC7
:10323000A1432008E071000038B5C30700F0020484
:103240001CD5534B1878A9B107F06EFAACB1FFF753
:10325000BFFF90B94F4B1D785C78052D26D94E489D
:103260004FF49B710EF040FC4B484FF49F710EF0F1
:103270003BFC4EE007F080FA24B938BD002CFCD0AE
:103280000029E4D1FFF7A4FF0028F6D1414B1D78B7
:103290005C78052D44D940484FF4CE710EF024FCE3
:1032A0003D484FF4D2710EF01FFC6BE0032D0ED998
:1032B000042D2CD10B2C04D9374840F23B110EF0D1
:1032C00013FC240104F1105404F598241CE055B9B2
:1032D0004B2C8CBF002301237BB92F484FF49C71EA
:1032E0000EF002FC09E0012D01D13B2CF1E7022D8B
:1032F00001D12B2CEDE71B2CEFD804EB0514240196
:1033000004F18C4404F5981401236360B5E7052C9F
:10331000AAD8224BA4001A5942F020021A51ACE755
:10332000032D0ED9042D2BD10B2C04D91A4840F2B1
:10333000A1110EF0D9FB240104F1105404F59824D6
:103340001CE055B94B2C8CBF002301237BB91248DC
:103350004FF4CF710EF0C8FB09E0012D01D13B2CD9
:10336000F1E7022D01D12B2CEDE71B2CEFD804EB5C
:103370000514240104F18C4404F598140023C4E7D7
:10338000052C8DD8054BA4001A596FF34512C5E7DB
:10339000C3232208500000007B2A22081C86042434
:1033A00070B5224E3368002B34D0013B3360002BC4
:1033B00030D11F4C1F4D2378618815F8332091427E
:1033C00006D305EBC3035B78DB0924D000236380BD
:1033D0002378628805EBC3035B6803EB820133F853
:1033E0002200897801F00101FFF726FF237815F804
:1033F0003320012A0BD005EBC30562886B6803EB11
:1034000082035B88012B8CBF5B08012333606388D8
:103410000133638070BD2379237005EBC303E28819
:103420005B786280DB09D1D1D2E700BFD8710000A0
:10343000D0710000702B22081B4A137851789078C5
:1034400043EA012310B543EA00400DF0CFFD0446E6
:10345000C8B10120FEF76EF920B31448FEF78AF9CF
:10346000FEF796F91248FEF785F91248FEF782F941
:10347000FEF7BEF91048FEF77DF921460F48BDE87A
:103480001040FEF777B90E4B01461870588018713E
:10349000D8800320FFF7D0FE0A4B1C60BDE8104027
:1034A000FFF7B8BE10BD00BF50000000AA422208BE
:1034B000F5202208012122089D1F2208332B220813
:1034C000D0710000D871000030B50F4B0F4C1D7843
:1034D00004EBC00204EBC50452780146D0096278BF
:1034E000D2090DD028B100225A8019701971DA80E2
:1034F00004E05A881D71DA8019705880012001E0BB
:103500000028F3D130BD00BFD0710000702B22081D
:10351000092810B502D90024204610BD084A1278A7
:103520008242F8D0FFF7D0FF04460028F3D00021F4
:103530000320FFF781FE034B01221A60ECE700BF76
:10354000D0710000D8710000543054289ABF024B4B
:1035500018566FF004007047372C220810B5094C3C
:1035600023686BB9012004F046FB206040B94FF09E
:10357000140383F31188BFF36F8FBFF34F8FFEE700
:1035800010BD00BF00720000F8B50F461446064695
:1035900068B361B3542005F053FA054650B304F004
:1035A0000103A20748BF43F0020314F0030F18BF42
:1035B0000323600748BF43F48073210748BF43F4E7
:1035C0000063E2060D4848BF43F480633A4629464B
:1035D00019F004FA044610B935602046F8BD2846B3
:1035E00005F004FB2046BDE8F840FFF7ADBF6FF0E3
:1035F0001504F2E76FF00B04EFE700BF587200000C
:1036000070B5044680B1066876B13146084819F0B5
:1036100001FA0546304605F0E9FA00232360284602
:10362000BDE87040FFF790BF6FF0080070BD00BFAD
:103630005872000010B513460C4660B1016851B1D4
:103640004CB10748224619F015FA031E05DABDE809
:103650001040FFF779BF6FF01503184610BD00BF8B
:103660005872000010B513460C4660B1016851B1A4
:103670004CB10748224619F031FA031E05DABDE8BD
:103680001040FFF761BF6FF01503184610BD00BF73
:103690005872000010B513460C4668B1016859B164
:1036A000022A0CD80848224619F030FA844209D080
:1036B000BDE81040FFF748BF6FF0080010BD6FF085
:1036C0001500FBE70020F9E75872000030B50D4601
:1036D000C3B00146F8B1F5B110486A4619F05CF97B
:1036E000044620B143B0BDE83040FFF72DBFFF22B4
:1036F00002A928461BF0A8FA019BC5F800319DF8E5
:10370000003085F8FF40013B18BF012385F80431E4
:10371000204643B030BD6FF01504F9E75872000041
:1037200008B5014630B1054819F008FABDE808406F
:10373000FFF70ABF6FF0150008BD00BF5872000008
:1037400070B50C460646B8B1B1B1342005F078F931
:103750000546A0B1224601460A4819F09FFA0446E0
:1037600038B1284605F042FA2046BDE87040FFF720
:10377000EBBE3560204670BD6FF01504FAE76FF0C0
:103780000B04F7E75872000010B50C46C2B020B326
:10379000016811B30CB312486A4619F0E1FA031E2E
:1037A00004DA42B0BDE81040FFF7CEBE12D0FF22CF
:1037B00002A920461BF048FA002384F8FF30019B41
:1037C000C4F800319DF80030013B18BF012384F894
:1037D00004310123184642B010BD6FF01503F9E71C
:1037E0005872000070B5044680B1066876B1314663
:1037F000084819F0A7FA0546304605F0F7F9002306
:1038000023602846BDE87040FFF79EBE6FF00800B9
:1038100070BD00BF5872000038B50446002847D07C
:103820002549264B4B60264B8B60264BCB60264BA5
:103830000B614FF480721023C1E905324FF48052BE
:10384000C1E907224FF48062C1E90A231F48C82357
:103850004B6218F07FFF054630B30120FDF76AFF89
:1038600098B11B48FDF786FFFDF792FF1948FDF759
:1038700081FF1948FDF77EFFFDF7BAFF1748FDF7F6
:1038800079FF17482946FDF775FF0B490F4818F0D7
:10389000EBFE18B1BDE83840FFF756BE06490B48AD
:1038A00018F058FF0028F5D1084B6360002038BDA0
:1038B0006FF01500FBE700BF047200006DA1210846
:1038C00089A12108A5A12108BFA1210858720000E3
:1038D000AA422208F5202208012122089D1F220861
:1038E000102C220808B540B1016831B1044819F024
:1038F000A9F8BDE80840FFF727BE6FF0080008BD33
:103900005872000010B5044690B10B4819F072FAD5
:10391000021E03DABDE81040FFF716BE074BD96957
:103920001B6AA360C4E900119B1AE360002010BD6C
:103930006FF01500FBE700BF587200000472000032
:10394000F8B50C4F044638680D46164618B14FF0CE
:10395000FF3104F0CDFA204632462946FFF782FEB9
:103960000446386820B100231A46194604F053F87B
:103970002046F8BD007200007047704708B501206E
:10398000FDF7D8FEA0B10B48FDF7F4FEFDF700FFF0
:103990000948FDF7EFFE0948FDF7ECFEFDF728FFAB
:1039A0000748FDF7E7FEBDE808400648FDF7E2BE20
:1039B00008BD00BFAA422208F520220801212208E2
:1039C0009D1F2208F52C220870B5C4B001A8FFF78E
:1039D000D3FF484901A8FFF7B3FE0446002836D1BB
:1039E000454D464E02A901A8FFF7CEFE041E64DD38
:1039F0009DF80830002B79D0294602A81BF007FA61
:103A00000028EFD0314602A81BF001FA0028E9D0C7
:103A10009DF80C31012B4FF0030034D1FDF78AFEE5
:103A20000028DFD03648FDF7A5FEFDF7B1FE35488A
:103A3000FDF7A0FE3448FDF79DFEFDF7D9FE3348A3
:103A4000FDF798FE02A93248FDF794FECAE701206F
:103A5000FDF770FEA0B12A48FDF78CFEFDF798FE39
:103A60002C48FDF787FE2C48FDF784FEFDF7C0FECD
:103A70002648FDF77FFE1F4928482246FDF77AFEBB
:103A8000204644B070BDFDF755FE0028AAD01C4862
:103A9000FDF770FEFDF77CFE1A48FDF76BFE1A4835
:103AA000FDF768FEFDF7A4FE1848FDF763FE429A95
:103AB0001B4802A9FDF75EFE94E717D00120FDF731
:103AC00039FE98B10E48FDF755FEFDF761FE11482D
:103AD000FDF750FE1048FDF74DFEFDF789FE0B483F
:103AE000FDF748FE0F482146FDF744FE01A8FFF709
:103AF00079FEC5E7092D22082B2D22082A2D220840
:103B0000AA422208881F2208941F22089D1F22080B
:103B10002D2D2208F5202208012122080E2D220831
:103B2000392D2208522D220830B5C3B0694605460A
:103B3000FFF7CCFD00B32846FFF7F2FD0446D8B1ED
:103B400010F1110F18D00120FDF7F4FDA0B10B48C2
:103B5000FDF710FEFDF71CFE0948FDF70BFE0948B6
:103B6000FDF708FEFDF744FE0748FDF703FE074892
:103B700022462946FDF7FEFD43B030BDAA42220889
:103B8000F5202208012122089D1F22086B2D220802
:103B9000F0B585B0FFF7E2FC7A48FFF73DFEC8B10B
:103BA0000120FDF7C7FD90B17748FDF7E3FDFDF774
:103BB000EFFD7648FDF7DEFD7548FDF7DBFDFDF70F
:103BC00017FE7448FDF7D6FD7348FDF7D3FD4FF09F
:103BD000FF341CE06846FFF795FE0446D0B1012093
:103BE000FDF7A8FD98B16848FDF7C4FDFDF7D0FDCD
:103BF0006648FDF7BFFD6648FDF7BCFDFDF7F8FD23
:103C00006448FDF7B7FD65482146FDF7B3FD204642
:103C100005B0F0BD0320FDF78DFDB0B15A48FDF7AA
:103C2000A9FDFDF7B5FD5E48FDF7A4FD5D48FDF774
:103C3000A1FDFDF7DDFD5748FDF79CFDDDE90131F4
:103C400059435948890AFDF795FD0320FDF772FD98
:103C5000B0B14D48FDF78EFDFDF79AFD5048FDF7D8
:103C600089FD5048FDF786FDFDF7C2FD4948FDF787
:103C700081FD0399019B4D485943890AFDF77AFD5F
:103C80000320DDE90256FDF755FD30B33E48FDF750
:103C900071FDFDF77DFD4248FDF76CFD4148FDF7E4
:103CA00069FDFDF7A5FD3B48FDF764FDA81B19F074
:103CB00001FA3F4B002219F077FA064628460F46D4
:103CC00019F0F8F902460B463046394619F096FBD2
:103CD00002460B463748FDF74DFD2A4B1868FFF7A3
:103CE00023FF00F04BFB0320FDF724FD90B1264895
:103CF000FDF740FDFDF74CFD2948FDF73BFD294848
:103D0000FDF738FDFDF774FD2248FDF733FD2A4825
:103D1000FDF730FDFFF758FE051E18DA0120FDF70C
:103D200009FDA0B11848FDF725FDFDF731FD174845
:103D3000FDF720FD1648FDF71DFDFDF759FD15485F
:103D4000FDF718FD1D491E482A46FDF713FD032007
:103D5000FDF7F0FC00283FF45AAF0B48FDF70AFDD1
:103D6000FDF716FD0E48FDF705FD0E48FDF702FDB7
:103D7000FDF73EFD0748FDF7FDFC0F48FDF7FAFC97
:103D800045E700BF54000000AA422208F52022089F
:103D9000012122089D1F22088F2D2208AC2D220808
:103DA000881F2208941F2208D62D2208EC2D2208F5
:103DB00000005940012E22081E2E2208092D22083B
:103DC000492E2208F7B52E4E3468002C1BDD012049
:103DD000FDF7B0FC98B12B48FDF7CCFCFDF7D8FC03
:103DE0002948FDF7C7FC2948FDF7C4FCFDF700FD95
:103DF0002748FDF7BFFC31682648FDF7BBFC0025CE
:103E0000284603B0F0BD244F00904FF403735C4389
:103E1000224B234A1B68E51904F500744FF48071A6
:103E20003C4428461AF050FD00232046A5F80832ED
:103E3000FFF7A3FD204607222946FFF7A5FB041E36
:103E40001ADA0120FDF776FC0028D8D00D48FDF7DE
:103E500091FCFDF79DFC0C48FDF78CFC0B48FDF731
:103E600089FCFDF7C5FC0A48FDF784FC224629467B
:103E70000C48FDF77FFCC2E7336801333360BFE7CE
:103E8000D8720000AA422208F52022080121220847
:103E90009D1F22085E2E2208DC72000054000000E4
:103EA000812E22088B2E220870B500F5007605467B
:103EB0003046FFF717FD04460320FDF73BFC98B1A1
:103EC0001C48FDF757FCFDF763FC1B48FDF752FC4F
:103ED0001A48FDF74FFCFDF78BFC1948FDF74AFC2B
:103EE00018482146FDF746FC3046FFF789FB041EC3
:103EF0001ADA0120FDF71EFCA0B10E48FDF73AFCCE
:103F0000FDF746FC1048FDF735FC1048FDF732FC84
:103F1000FDF76EFC0A48FDF72DFC0D4822462946A8
:103F2000FDF728FC204670BD0A4A1368013B136068
:103F30000024F7E7AA422208881F2208941F2208BB
:103F40009D1F22089F2E2208F52022080121220809
:103F5000BB2E2208D872000084B038B5044605A8EC
:103F600080E80E000146BC2204F50070FFF77AFBE2
:103F7000051E20DA0120FDF7DDFBA0B10F48FDF79B
:103F8000F9FBFDF705FC0E48FDF7F4FB0D48FDF7C6
:103F9000F1FBFDF72DFC0C48FDF7ECFB0B482A4626
:103FA0002146FDF7E7FBFFF7E9FC4FF0FF30BDE8E6
:103FB000384004B070470020F9E700BFAA42220849
:103FC000F5202208012122089D1F2208D02E220858
:103FD00010B5ADF5047D324B00901B68314A4FF4AB
:103FE0008071044602A81AF06FFC42A902A8FFF7EC
:103FF0006DFB002839DB0420FDF79CFBA0B12A48AB
:10400000FDF7B8FBFDF7C4FB2848FDF7B3FB2848D4
:10401000FDF7B0FBFDF7ECFB2648FDF7ABFB829A02
:10402000254842A9FDF7A6FB0420829CBC23B4FBD3
:10403000F3F4FDF77FFBA0B11B48FDF79BFBFDF7F9
:10404000A7FB1A48FDF796FB1948FDF793FBFDF710
:10405000CFFB1848FDF78EFB1848224602A9FDF752
:1040600089FB20460DF5047D10BD0120FDF762FBA4
:1040700098B10D48FDF77EFBFDF78AFB1048FDF770
:1040800079FB1048FDF776FBFDF7B2FB0948FDF719
:1040900071FB0D482146FDF76DFB4FF0FF34E0E763
:1040A00054000000812E2208AA4222084328220838
:1040B0004F2822089D1F2208E52E2208082F2208DB
:1040C000F520220801212208F72E220810B5ADF5AF
:1040D000047D324B00901B68314A4FF480710446D6
:1040E00002A81AF0F1FB42A902A8FFF7EFFA002894
:1040F00039DB0420FDF71EFBA0B12A48FDF73AFB8F
:10410000FDF746FB2848FDF735FB2848FDF732FB55
:10411000FDF76EFB2648FDF72DFB829A254842A944
:10412000FDF728FB0420829C2623B4FBF3F4FDF763
:1041300001FBA0B11B48FDF71DFBFDF729FB1A4849
:10414000FDF718FB1948FDF715FBFDF751FB184863
:10415000FDF710FB1848224602A9FDF70BFB20468D
:104160000DF5047D10BD0120FDF7E4FA98B10D486E
:10417000FDF700FBFDF70CFB1048FDF7FBFA1048BC
:10418000FDF7F8FAFDF734FB0948FDF7F3FA0D489F
:104190002146FDF7EFFA4FF0FF34E0E7540000004E
:1041A0006C2F2208AA422208432822084F282208FE
:1041B0009D1F2208E52E2208082F2208F52022083C
:1041C00001212208F72E22082DE9F041C4B05E4BF0
:1041D00000901B6806460D4617464FF480715B4AF7
:1041E00004A81AF071FB03A8FFF7C7FB032204A978
:1041F00003A8FFF7C9F9041E1CDA0120FDF79AFA9B
:10420000A0B15348FDF7B6FAFDF7C2FA5148FDF7E1
:10421000B1FA5148FDF7AEFAFDF7EAFA4F48FDF75B
:10422000A9FA4F48224604A9FDF7A4FA204644B053
:10423000BDE8F0814FF02608002208FB05F103A835
:10424000FFF728FA041E18DA0120FDF773FA002898
:10425000ECD03F48FDF78EFAFDF79AFA3D48FDF79E
:1042600089FA3D48FDF786FAFDF7C2FA3B48FDF7AB
:1042700081FA3C48224604A9D6E74246394603A8BB
:10428000FFF7D8F90446E8B125281BDC0120FDF72B
:1042900051FAA0B12E48FDF76DFAFDF779FA2D48D5
:1042A000FDF768FA2C48FDF765FAFDF7A1FA2B48EF
:1042B000FDF760FA2C48224604A9FDF75BFA4FF09F
:1042C000FF34B3E703A8FFF79BF9041E18DA0120B7
:1042D000FDF730FA0028F2D01D48FDF74BFAFDF744
:1042E00057FA1C48FDF746FA1B48FDF743FAFDF75D
:1042F0007FFA1A48FDF73EFA1C48224604A9DCE77B
:104300003046FFF7E3FE0138A84201D000248DE7D4
:104310000320FDF70FFA0028F8D00D48FDF72AFA20
:10432000FDF736FA1248FDF725FA1248FDF722FA92
:10433000FDF75EFA0948FDF71DFA04AA29460E4862
:10434000FDF718FAE2E700BF540000006C2F2208C6
:10435000AA422208F5202208012122089D1F2208D6
:104360008B2E2208192F22082D2F2208BB2E22085F
:10437000881F2208941F2208462F220810B5C2B0B9
:1043800016486946FFF7A2F918B90024204642B042
:1043900010BD1248FFF7C4F904460028F5D010F10B
:1043A000110FF2D00120FDF7C5F90028EED00C481E
:1043B000FDF7E0F9FDF7ECF90A48FDF7DBF90A48EB
:1043C000FDF7D8F9FDF714FA0848FDF7D3F90349CA
:1043D00007482246FDF7CEF9D8E700BF8B2F220809
:1043E000AA422208F5202208012122089D1F220846
:1043F0006B2D2208F0B5C3B0034605460E4617469E
:104400004FF480713A4A02A81AF05EFA012202A91A
:1044100001A8FFF7B9F8831C04462BD1072202A993
:1044200001A8FFF7B1F80446C8B10120FDF782F9F1
:10443000E8B13048FDF79EF9FDF7AAF92E48FDF7DF
:1044400099F92E48FDF796F9FDF7D2F92C48FDF7BA
:1044500091F92C4822462946FDF78CF907E001A87E
:10446000FFF7CEF83A46214630461AF0C7FB204601
:1044700043B0F0BDC0B10120FDF75CF90028F6D0D3
:104480001C48FDF777F9FDF783F91B48FDF772F932
:104490001A48FDF76FF9FDF7ABF91948FDF76AF90E
:1044A000194822462946D7E73A46314601A8FFF780
:1044B000C1F8041E18DA0120FDF73CF9A0B10D483F
:1044C000FDF758F9FDF764F90B48FDF753F90B4870
:1044D000FDF750F9FDF78CF90948FDF74BF90B484A
:1044E00022462946FDF746F901A8FFF789F8BEE7FD
:1044F000972F2208AA422208F5202208012122082B
:104500009D1F2208AF2F2208DE2F22080B30220821
:10451000F0B5C3B0034605460E4617464FF480710A
:10452000274A02A81AF0D0F9062202A901A8FFF72B
:104530002BF80446D8B10120FDF7FCF8A0B12148C2
:10454000FDF718F9FDF724F91F48FDF713F91F4887
:10455000FDF710F9FDF74CF91D48FDF70BF91D4863
:1045600022462946FDF706F9204643B0F0BD3A46FB
:10457000314601A8FFF7E4F9041E1CDA0120FDF71B
:10458000D9F8A0B10F48FDF7F5F8FDF701F90E488D
:10459000FDF7F0F80D48FDF7EDF8FDF729F90C48A7
:1045A000FDF7E8F80C4822462946FDF7E3F801A894
:1045B000FFF726F8D8E701A8FFF794F9F7E700BF5F
:1045C000972F2208AA422208F5202208012122085A
:1045D0009D1F220829302208593022081FB51022B9
:1045E000002168461AF00AFB102269460320FFF7F3
:1045F00001FF184B009A9A420FD0002200936423C7
:10460000CDE9022369460A23102203208DF80430E5
:10461000FFF77EFF05B05DF804FB0320FDF78AF885
:104620000028F7D00C48FDF7A5F8FDF7B1F80B48C6
:10463000FDF7A0F80A48FDF79DF8FDF7D9F80948FD
:10464000FDF798F89DF80430039A00990648FDF7A5
:1046500091F8DFE755434D41AA422208881F2208FE
:10466000941F22089D1F22087830220884B070B55C
:10467000ACB030AC84E80F000A22414CB1FBF2F53B
:1046800002FB151539B93F4A116030980021FDF73A
:1046900025F8606001E0002DF7D0122303FB0543ED
:1046A000BDF8C8201A81BDF8CA205A81BDF8CC20B7
:1046B0009A81DDF8CE20C3F80E20DDF8D220C3F8B1
:1046C0001220DDF8D620C3F816202F4B2F4A05FB09
:1046D0000333B2EB730F05D200202CB0BDE870405D
:1046E00004B07047274D2868FCF7F6FF2B68206060
:1046F000013303202B60FDF71DF898B12448FDF726
:1047000039F8FDF745F82348FDF734F82248FDF75E
:1047100031F8FDF76DF82148FDF72CF821682048A5
:10472000FDF728F81F4926686568A468B022684626
:104730001AF0D6FB1C482346006831462A46FFF78C
:104740000BFC04460028C7D00120FCF7F3FF98B10A
:104750000F48FDF70FF8FDF71BF81448FDF70AF8AE
:104760001348FDF707F8FDF743F80C48FDF702F88A
:1047700010482146FCF7FEFF4FF0FF30ADE700BFC9
:10478000E8740000A4750000CDCCCCCC999999199F
:10479000AA422208881F2208941F22089D1F22086F
:1047A000B5302208F4740000BC750000F520220822
:1047B00001212208CE30220884B01FB50DF1180C5B
:1047C0008CE80F000AAA07CA6B4603C31A809CE84C
:1047D0000F00FFF74BFF05B05DF804EB04B0704726
:1047E000012970B5044673D1FFF7ECFA05460420A1
:1047F000FCF7A0FF98B15F48FCF7BCFFFCF7C8FFCF
:104800005D48FCF7B7FF5D48FCF7B4FFFCF7F0FF2D
:104810005B48FCF7AFFF5B482946FCF7ABFFCDB91F
:104820000120FCF787FF002835D05248FCF7A2FF93
:10483000FCF7AEFF5448FCF79DFF5448FCF79AFF85
:10484000FCF7D6FF4E48FCF795FF51482146FCF790
:1048500091FF20E04F4E504935600F2000F0C4FB1F
:10486000E0B10120FCF766FF90B14248FCF782FFFF
:10487000FCF78EFF4448FCF77DFF4448FCF77AFFC5
:10488000FCF7B6FF3E48FCF775FF4448FCF772FFA3
:104890003068FFF709FB4FF0FF3018E00320FCF70A
:1048A00049FF98B13348FCF765FFFCF771FF3C48BE
:1048B000FCF760FF3B48FCF75DFFFCF799FF3048D1
:1048C000FCF758FF38482146FCF754FF002070BD24
:1048D0000320FCF72FFF90B12648FCF74BFFFCF7B5
:1048E00057FF2F48FCF746FF2E48FCF743FFFCF725
:1048F0007FFF2348FCF73EFF2C48FCF73BFF0021DD
:10490000084600F071FB0320FCF714FF90B1194832
:10491000FCF730FFFCF73CFF2148FCF72BFF214858
:10492000FCF728FFFCF764FF1548FCF723FF20483D
:10493000FCF720FF174D2868FFF7B6FAB8B1012041
:10494000FCF7F8FE0028A6D00A48FCF713FFFCF796
:104950001FFF0D48FCF70EFF0C48FCF70BFFFCF7A0
:1049600047FF0748FCF706FF124821466FE728601B
:10497000ACE700BFAA422208432822084F28220899
:104980009D1F2208F3302208F52022080121220869
:1049900000312208BC750000B957200819312208DF
:1049A000881F2208941F2208303122086131220812
:1049B00073312208813122082DE9F341384EDFF8A6
:1049C00010810446051D00F10C0715F8012F304633
:1049D000414619F0ADFFBD4206F10206F5D123793B
:1049E000002B54D02F4B1B68BBB92F4B01221A70E0
:1049F00011232E4A002406216846CDE900248DF8B3
:104A00000430FCF771FE0821ADF806006846FDF79A
:104A10004DFF204602B0BDE8F0810220FCF78AFE7F
:104A200090B12348FCF7A6FEFCF7B2FE2148FCF744
:104A3000A1FE2148FCF79EFEFCF7DAFE1F48FCF7BA
:104A400099FE1F48FCF796FE1E4D1F480021FFF7F8
:104A5000C7FE2B78C3B10220FCF76CFE90B114485E
:104A6000FCF788FEFCF794FE1248FCF783FE124820
:104A7000FCF780FEFCF7BCFE1048FCF77BFE1348F9
:104A8000FCF778FE00232B702379002BADD104486E
:104A90000021FFF7A5FE0028AAD01A23A9E700BF2E
:104AA000AA750000BC750000A97500000208F2108C
:104AB000AA4222089B312208A73122089D1F220802
:104AC000B3312208A8750000BF1F2208E731220871
:104AD000532522082DE9F0438BB0044600210D2216
:104AE00001A800911AF08AF86D46DFF8D490E61C10
:104AF00004F10B082F4616F8012F2846494619F0F5
:104B000017FF464505F10205F5D1254B1B68D3B1CA
:104B10000220FCF70FFE90B12248FCF72BFEFCF7B9
:104B200037FE2148FCF726FE2048FCF723FEFCF761
:104B30005FFE1F48FCF71EFE1E48FCF71BFE1E48CA
:104B40000021FFF74DFE3846FFF742FA05B2002D6F
:104B50004FF00D02194B05934FF0000106A8BABFA4
:104B60000025122611261AF049F86368CDF819308D
:104B7000A8B2A368CDF81D30FCF7A8FD0F21ADF851
:104B8000210005A88DF81860FCF7AEFD1121ADF8E5
:104B9000230005A8FDF78AFE00200BB0BDE8F083D6
:104BA000BC750000AA4222089B312208A7312208C6
:104BB0009D1F220806322208BF1F22080211F2118F
:104BC000532522082DE9F04304469BB0B0F80F00AE
:104BD000DFF81C91FCF77DFD002105460D2201A8A0
:104BE00000911AF00BF86E4604F1030837460B34B7
:104BF00018F8012F3046494619F09AFEA04506F1F3
:104C00000206F5D10420FCF795FDA0B13048FCF771
:104C1000B1FDFCF7BDFD2F48FCF7ACFD2E48FCF7BD
:104C2000A9FDFCF7E5FD2D48FCF7A4FD2C483A460C
:104C30002946FCF79FFD2622002105A819F0DEFF7A
:104C400005AA29463846FFF7BFFA00281DDA0120D9
:104C5000FCF770FDA0B11E48FCF78CFDFCF798FD39
:104C60002048FCF787FD2048FCF784FDFCF7C0FDD9
:104C70001A48FCF77FFD1D483A462946FCF77AFDA5
:104C80004FF0FF301BB0BDE8F0830023ADF8633078
:104C900002238DF83C300DF13D0205AB0DAD1C46F5
:104CA00003CCAC4210605160234602F10802F6D1F9
:104CB00020681060A388938027210FA8FCF714FDBB
:104CC0002921ADF863000FA8FDF7F0FD0020D9E71A
:104CD000AA422208432822084F2822089D1F2208A2
:104CE00022322208F520220801212208423222081D
:104CF000532522082DE9F0438BB0044600210D22F4
:104D000001A8009119F07AFF6D46DFF8D490E61CF7
:104D100004F10B082F4616F8012F2846494619F0D2
:104D200007FE464505F10205F5D1254B1B68D3B1B9
:104D30000220FCF7FFFC90B12248FCF71BFDFCF7BA
:104D400027FD2148FCF716FD2048FCF713FDFCF772
:104D50004FFD1F48FCF70EFD1E48FCF70BFD1E48DB
:104D60000021FFF73DFD3846FFF7B0F905B2002DF1
:104D70004FF00D02194B05934FF0000106A8BABF82
:104D800000251226112619F039FF6368CDF8193075
:104D9000A8B2A368CDF81D30FCF798FC0F21ADF840
:104DA000210005A88DF81860FCF79EFC1121ADF8D4
:104DB000230005A8FDF77AFD00200BB0BDE8F083C5
:104DC000BC750000AA4222089B312208A7312208A4
:104DD0009D1F220806322208BF1F22080211F2136B
:104DE000532522082DE9F04304469BB0B0F80F008C
:104DF000DFF81C91FCF76DFC002105460D2201A88F
:104E0000009119F0FBFE6E4604F1030837460B349F
:104E100018F8012F3046494619F08AFDA04506F1E1
:104E20000206F5D10420FCF785FCA0B13048FCF760
:104E3000A1FCFCF7ADFC2F48FCF79CFC2E48FCF7CE
:104E400099FCFCF7D5FC2D48FCF794FC2C483A461D
:104E50002946FCF78FFC2622002105A819F0CEFE7A
:104E600005AA29463846FFF7AFF900281DDA0120C8
:104E7000FCF760FCA0B11E48FCF77CFCFCF788FC4A
:104E80002048FCF777FC2048FCF774FCFCF7B0FCEA
:104E90001A48FCF76FFC1D483A462946FCF76AFCA5
:104EA0004FF0FF301BB0BDE8F0830023ADF8633056
:104EB00002238DF83C300DF13D0205AB0DAD1C46D3
:104EC00003CCAC4210605160234602F10802F6D1D7
:104ED00020681060A388938027210FA8FCF704FCAA
:104EE0002921ADF863000FA8FDF7E0FC0020D9E709
:104EF000AA422208432822084F2822089D1F220880
:104F000022322208F52022080121220842322208FA
:104F100053252208F0B593B01BF0C6FF284F294C4B
:104F2000294D05903B78FBB90420FCF703FC90B1B8
:104F30002648FCF71FFCFCF72BFC2548FCF71AFC65
:104F40002448FCF717FCFCF753FC2348FCF712FC41
:104F50002248FCF70FFC224B0020206028601860DC
:104F60001BF0DAFF13B0F0BDFCF778FB23680B9061
:104F700008A906A80C9300F015FABDF91C30ADF88D
:104F80003830089BCDF83A302E68099B069ACDF848
:104F90003E300A9B0D92CDF8423046B112AA12E97A
:104FA00007006B4603C31A800BAB0FCBB0472368D7
:104FB000013323600B4B05A819681BF0D5FFB1E73F
:104FC000C4750000CC750000D0750000AA4222080C
:104FD000432822084F2822089D1F22086F322208EA
:104FE000C8750000C07500002DE9F341384CDFF8AA
:104FF000188123680F46054678BB3BB3354B1870C4
:10500000354B186840000A2838BF0A2001F0A9FF74
:105010002368DBB10420FCF78DFB90B12F48FCF72F
:10502000A9FBFCF7B5FB2E48FCF7A4FB2D48FCF7C9
:10503000A1FBFCF7DDFB2C48FCF79CFB2B48FCF7A5
:1050400099FB20681BF068FF002323600023C8F849
:105050000030002002B0BDE8F0811E4E23B10023D5
:105060000A20337001F07DFF1B4AC8F800704FF42E
:105070007A73B3FBF5F313601D4A1E491E480023E3
:10508000136001251A223570009201944FF40072CA
:105090001BF05EFFA842DCD02846FCF74BFB90B12A
:1050A0000E48FCF767FBFCF773FB1448FCF762FB48
:1050B0001348FCF75FFBFCF79BFB0B48FCF75AFB24
:1050C0001048FCF757FB002333704FF0FF30C1E767
:1050D000C8750000C4750000C0750000AA4222080F
:1050E000432822084F2822089D1F220869322208DF
:1050F000CC7500008B322208155F2008F5202208AD
:105100000121220897322208D075000073B50446A9
:105110006B46002845D1334A92E8030083E8030038
:10512000E6B2194630460CF00DFA0546002840D08C
:105130000120FCF7FFFA98B12B48FCF71BFBFCF7AA
:1051400027FB2A48FCF716FB2948FCF713FBFCF762
:105150004FFB2848FCF70EFB27482946FCF70AFBC3
:105160000022114630460CF08DFA0446B8B10120F9
:10517000FCF7E0FA98B11C48FCF7FCFAFCF708FBD6
:105180001A48FCF7F7FA1A48FCF7F4FAFCF730FB78
:105190001848FCF7EFFA19482146FCF7EBFA02B081
:1051A00070BD012801D1164AB6E70228B8D1154AC8
:1051B000B2E70420FCF7BEFA0028D1D00A48FCF779
:1051C000D9FAFCF7E5FA1048FCF7D4FA0F48FCF7D7
:1051D000D1FAFCF70DFB0748FCF7CCFA0C48214646
:1051E000BCE700BF48000000AA422208F5202208C0
:1051F000012122089D1F2208BB32220834332208D5
:105200004000000038000000432822084F282208F0
:10521000F7322208F8B500AF0D46BA8B02F108014B
:105220000446C9086846A0EBC1018D466846561C75
:1052300000F8013BB96919F053FE204633466A462F
:10524000A9B20CF039FA0446C0B10120FCF772FA99
:1052500098B10B48FCF78EFAFCF79AFA0948FCF76C
:1052600089FA0948FCF786FAFCF7C2FA0748FCF706
:1052700081FA07482146FCF77DFA0920BD46F8BDB2
:10528000AA422208F5202208012122089D1F220897
:105290008433220830B587B08AB28DF8043001AB70
:1052A00002930A9B04930125BDF82C30039502A9B3
:1052B00005930CF001FB0446C0B12846FCF73AFA0E
:1052C00098B10B48FCF756FAFCF762FA0948FCF76C
:1052D00051FA0948FCF74EFAFCF78AFA0748FCF73E
:1052E00049FA07482146FCF745FA092007B030BDC6
:1052F000AA422208F5202208012122089D1F220827
:10530000CE33220880B201F029BCFFF7FBBF0000BA
:1053100008B50120FCF70EFA98B10B48FCF72AFA01
:10532000FCF736FA0948FCF725FA0948FCF722FA97
:10533000FCF75EFA0748FCF71DFA07480121FCF765
:1053400019FA012008BD00BFAA422208F520220850
:10535000012122089D1F2208CE33220807B5CDE97E
:1053600000230B4602466A210120FFF793FF20B17C
:1053700003B05DF804EBFFF7CBBF03B05DF804FBAF
:1053800007B5CDE900230B4602466A210120FFF74D
:1053900041FF20B103B05DF804EBFFF7B9BF03B0E4
:1053A0005DF804FB7FB505460C46454801A900F0B1
:1053B0006CFA0646002876D10146FCF76DF89DF898
:1053C0000430DA072ED502A93D480296ADF80C60EC
:1053D00000F08DFABDF908003A4E00F035F91BF0E7
:1053E00003FD07EE900AFDEEE77ABDF90A0017EE1D
:1053F000903A338000F028F91BF0F6FC07EE900A93
:10540000FDEEE77ABDF90C0017EE903A738000F0DC
:105410001BF91BF0E9FC07EE900AFDEEE77A17EEA8
:10542000903AB3809DF804309B072CD5002302A945
:1054300023480293ADF80C3000F03AFABDF90800A9
:10544000214E00F00FF91BF0CFFC07EE900AFDEEA5
:10545000E77ABDF90A00C6ED007A00F003F91BF007
:10546000C3FC07EE900AFDEEE77ABDF90C00C6ED2D
:10547000017A00F0F7F81BF0B7FC07EE900AFDEE9A
:10548000E77AC6ED027A35B10E4B1A882A805A881F
:105490009B886A80AB808CB10B4B1A6822605A687B
:1054A00062609B6809E001210020FBF7F5FF002303
:1054B0002B806B80AB80C4E90033A36004B070BD67
:1054C000EC750000E4750000D875000037B5444C59
:1054D000444B2360444B6360444BA3600A20002389
:1054E000E360FFF70FFF0DF10601204600F024F9FD
:1054F0000320FCF71FF9A0B13D48FCF73BF9FCF78E
:1055000047F93C48FCF736F93B48FCF733F9FCF720
:105510006FF93A48FCF72EF99DF806103848FCF769
:1055200029F99DF80630702B18D00120FCF702F9FC
:1055300090B12F48FCF71EF9FCF72AF93148FCF727
:1055400019F93148FCF716F9FCF752F92B48FCF72A
:1055500011F92E48FCF70EF903B030BD00210846C2
:10556000FBF79AFF1E481E4D042100F089F80DF14B
:105570000701284600F0B7F89DF80740002CF6D147
:105580000121174800F03CF90321154800F0DBF831
:105590000321134800F005F92146114800F05EF997
:1055A00004210F4800F043F9194B0D48197821F0F8
:1055B0000D0141F00D01197000F0B8F90121084802
:1055C00000F017FA2146064800F0FCF901210448D2
:1055D00000F03DFA0421024800F022FABCE700BFC7
:1055E000EC750000816320085D6320080B632008D0
:1055F000AA422208881F2208941F22089D1F220801
:105600001B342208F5202208012122083534220803
:10561000D475000010B428B14468C068A4465DF891
:10562000044B60474FF0FF305DF8044B704710B4F7
:1056300028B10468C068A4465DF8044B60474FF089
:10564000FF305DF8044B704707EE900A9FED047A37
:10565000F8EEE77A67EE877A17EE900A704700BF98
:1056600023DB793D07EE900A9FED047AF8EEE77AA6
:1056700067EE877A17EE900A704700BF00008C42F1
:1056800073B5012301AA0E4612210546FFF7C2FF9A
:10569000012304466A4619462846FFF7BBFF201837
:1056A0001FD1B208C6F3400343EAC2139DF8042099
:1056B00002F07E0213438DF804309DF8003066F34B
:1056C00082038DF8003001AA012312212846FFF73A
:1056D000AEFF012304466A4619462846FFF7A7FF96
:1056E000204402B070BD73B5012301AA0D461221FA
:1056F0000646FFF78FFF012304466A4619463046E7
:10570000FFF788FF201812D19DF8043003F0010242
:10571000DB095B0003EB82039DF80020C2F38002EB
:105720001344022B06D0042B04D013B9287002B006
:1057300070BD01232B70FAE708B50A4601230F213B
:10574000FFF768FF08BD73B501230D466A461021B7
:105750000646FFF75FFF10BB9DF8003065F30303BB
:105760008DF800306A46012310213046FFF75FFFB5
:10577000A8B92D0913D0012301AA62213046FFF7F1
:1057800049FF9DF8043065F3010304468DF80430A9
:1057900001AA012362213046FFF749FF204402B0ED
:1057A00070BD73B501230D466A4611210646FFF709
:1057B00031FF9DF8003065F3030304468DF8003097
:1057C0006A46012311213046FFF731FF201815D119
:1057D0002D0913D0012301AA62213046FFF71AFFD9
:1057E0009DF8043065F3010304468DF8043001AAE6
:1057F000012362213046FFF71AFF204402B070BD3A
:1058000037B501230D4601AA12210446FFF702FF16
:1058100058B99DF8043065F386138DF8043001AA59
:10582000012312212046FFF702FF03B030BD37B538
:1058300001230D4601AA15210446FFF7EBFE58B9D6
:105840009DF8043065F303038DF8043001AA0123A9
:1058500015212046FFF7EBFE03B030BD37B501231D
:105860000D4601AA17210446FFF7D4FE58B99DF84A
:10587000043065F301038DF8043001AA01231721D8
:105880002046FFF7D4FE03B030BD13B501230C460C
:1058900001AA1E21FFF7BEFE40B923789DF804201F
:1058A00023F0070302F007021343237002B010BD78
:1058B00013B506230C466A462221FFF7ABFEA0B9BA
:1058C0009DF801209DF8003003EB022323809DF812
:1058D00003209DF8023003EB022363809DF805202E
:1058E0009DF8043003EB0223A38002B010BD13B572
:1058F00006230C466A462821FFF78CFEA0B99DF8C6
:1059000001209DF8003003EB022323809DF8032043
:105910009DF8023003EB022363809DF805209DF87B
:10592000043003EB0223A38002B010BD7FB50D4607
:10593000012303AA13210646FFF76CFE9DF80C30E5
:1059400065F3C30304468DF80C3003AA0123132129
:105950003046FFF76CFE201832D1012301AA6321E3
:105960003046FFF757FEC5F38003C5F3C0021B01A5
:1059700043EA42139DF8042022F030021343044608
:105980008DF8043001AA012363213046FFF74FFE52
:10599000201815D1012302AA6F213046FFF73AFEE5
:1059A0009DF80830C5F3400565F3861304468DF86D
:1059B000083002AA01236F213046FFF738FE204449
:1059C00004B070BD37B501230D4601AA1521044668
:1059D000FFF720FE58B99DF8043065F306138DF8E3
:1059E000043001AA012315212046FFF720FE03B051
:1059F00030BD37B501230D4601AA16210446FFF735
:105A000009FE58B99DF8043065F300038DF80430A1
:105A100001AA012316212046FFF709FE03B030BD7D
:105A200037B501230D4601AA17210446FFF7F2FD01
:105A300058B99DF8043065F347138DF8043001AA76
:105A4000012317212046FFF7F2FD03B030BD37B523
:105A500001230D4601AA18210446FFF7DBFD58B9C2
:105A60009DF8043065F3C3038DF8043001AA0123C7
:105A700018212046FFF7DBFD03B030BD82B00023C4
:105A80000193019BB3F57A6F01DB02B07047019B74
:105A90000133F5E70348002300681A46194601F070
:105AA000BABF00BF64860000024B4FF0FF31186898
:105AB00002F01EBA648600002DE9F041069FDFF86F
:105AC000E0802E481D46002388F800300068D31976
:105AD00016462B4A0BF05EFC044620B10120FBF772
:105AE00029FE30B90224274B4FF0E0224FF08051BD
:105AF00019E02548FBF73EFEFBF74AFE2348FBF77B
:105B000039FE2348FBF736FEFBF772FE2148FBF710
:105B100031FE2148FBF72EFEE4E7C2F8041DBFF377
:105B20004F8FBFF36F8F98F80000D8B9013BF4D1C5
:105B30000120FBF7FFFD90B11348FBF71BFEFBF7BD
:105B400027FE1248FBF716FE1148FBF713FEFBF782
:105B50004FFE1048FBF70EFE1048FBF70BFE04202B
:105B6000BDE8F08135B12FB105493A4631442846A8
:105B700019F0B6F9201E18BF0120F1E7CC6301002F
:105B8000FC75000041420F00AA422208F5202208BD
:105B9000012122089D1F22084A3422086534220868
:105BA000C963010010B50446012002F024F8144B2B
:105BB0001860B8B90120FBF7BDFD90B11148FBF7A3
:105BC000D9FDFBF7E5FD1048FBF7D4FD0F48FBF7C7
:105BD000D1FDFBF70DFE0E48FBF7CCFD0D48FBF7A2
:105BE000C9FDFEE763684BB90B4B63620B4BA362C5
:105BF0000B4BE3620B4BA3630B4BE363002010BD25
:105C000064860000AA422208F52022080121220809
:105C10009D1F220881342208B96A2008A96A200839
:105C2000956A20087D6A2008C02709000FB437B59F
:105C300006AB114C53F8045B0193FBF7A9FD0F4829
:105C4000FBF798FD0E48FBF795FD0E48FBF792FD1C
:105C50000D48FBF78FFD019B2A464FF480712046CB
:105C600018F000FF21460948FBF784FD03B0BDE8AA
:105C7000304004B0704700BF68860000881F2208CB
:105C8000941F2208B93422089D1F22085226220898
:105C900000B9FEE790F835300333DBB2013BDB009F
:105CA000013A21FA03F0083B13F1080F02F8010F43
:105CB000F7D1704700487047600000001FB505220B
:105CC0000B468DF80F2000B9FEE701B9FEE701226F
:105CD0000092446A0DF10F012030A04704B010BDBE
:105CE00037B5C56B04460DF107012046FFF7E6FF07
:105CF0009DF8073003F00103034313F0FF0009D0C0
:105D0000A36B1DB103B19847013DECE70248FFF7D3
:105D10008DFF042003B030BDC0342208F0B5054625
:105D200085B000B9FEE766238DF80C3000230093A0
:105D300000F12006446A012203A93046A047044628
:105D400078B92846FFF7CCFF009499238DF80D30E1
:105D50006F6A234601220DF10D013046B847044613
:105D600018B10648FFF762FF05E02846FFF7B8FFC5
:105D700004460028F5D1204605B0F0BDE5342208E0
:105D80002DE9F043884685B017461E46044600B903
:105D9000FEE703B9FEE790F8343003B9FEE78B184D
:105DA0000269934207D91648FFF740FF05252846A8
:105DB00005B0BDE8F083836A00F120090BB14846C5
:105DC00098472046FFF78CFF054698B903230DF14D
:105DD0000902414620468DF80830FFF759FF94F834
:105DE000352000970432656A3346D2B202A948468C
:105DF000A8470546E36A002BD9D048469847D6E71E
:105E00000735220830B5044685B000B9FEE7002901
:105E10000CBF042306238DF80E3000230093456A3F
:105E200001220DF10E012030A84720B90DF10F011C
:105E30002046FFF743FF05B030BD0000F0B5054632
:105E400085B000B9FEE790F8343003B9FEE7836A05
:105E500000F120060BB13046984701212846FFF794
:105E6000D1FF0446C0B9C7238DF80C30AB8A6F6AE6
:105E70001B071CD594238DF80D3049F68023ADF80F
:105E80000E3000900346042203A93046B84704466A
:105E900088B10B48FFF7CAFE00212846FFF7B2FF82
:105EA000EB6A0BB130469847204605B0F0BD009034
:105EB00003460122E8E72846FFF712FF0446EBE716
:105EC0002D3522082DE9FF470E469046044600B9BD
:105ED000FEE790F8343003B9FEE703698A189A4266
:105EE00007D93848FFF7A2FE0525284604B0BDE8CB
:105EF000F08731B9434504D104B0BDE8F047FFF75E
:105F00009DBFA36A04F1200A0BB150469847B8F12F
:105F1000000F1FD112E0277FD4F8189029E0204607
:105F2000FFF7DEFE0546002841D1B6FBF9F309FB79
:105F3000136353B1A9EB0302424501D3002536E0B8
:105F4000A3EB090398441644E1E7C145F6D2A8EB58
:105F500009084E4494F84430002BDCD042463146C8
:105F6000204600F0C7FB04EBC00090F85870D0F852
:105F7000549001212046FFF745FF0546B8B90DF1C1
:105F80000902314620468DF80870FFF781FE94F82B
:105F90003520009504322B46676AD2B202A95046DA
:105FA000B84705460028BAD00748FFF73FFE002152
:105FB0002046FFF727FFE36A002B96D0504698470C
:105FC00093E700BF073522085C3522082DE9F04F22
:105FD000884685B016469946044600B9FEE7012B6F
:105FE00003D0B3F5807F00D0FEE794F8343003B9D6
:105FF000FEE7226908EB0603934207D92E48FFF714
:1060000015FE0527384605B0BDE8F08F04F12003E2
:106010000393A36A0BB103989847DFF8A8B047E051
:1060200001212046FFF7EEFE074660BB0223234A0C
:106030008BF8003041462046FFF72AFEB8FBF9F501
:1060400094F835A009FB15850AF1040A5FFA8AFA6B
:106050001DB3A9EB0505B54228BF35460E992A4662
:106060000BEB0A0018F03CFF00230093676A0398CB
:106070000AEB05025946B847761BA844074670B19B
:106080000F48FFF7D3FD00212046FFF7BBFEE36A70
:10609000002BB7D003989847B4E74D46DBE720467E
:1060A000FFF71EFE07460028EDD10E9B2B440E93F2
:1060B000002EB5D13746E6E707352208698700008C
:1060C00086352208688700002DE9F04F848A1E4635
:1060D000E30785B005468846174609D500964FF474
:1060E0008073FFF773FF0446204605B0BDE8F08FCC
:1060F00014F00404F8D090F834B0BBF1000F00D1D4
:10610000FEE78B180269934204D94148FFF78EFDE0
:106110000524E9E7836A00F120090BB14846984756
:1061200018F0010F0DD0012300961A46414628466B
:10613000FFF74CFF044600284BD108F10108013657
:10614000013F01212846FFF75DFE0446002840D1AB
:10615000AD238DF808300236B844012FA8EB070AAA
:1061600012D800212846FFF74DFE044688BB012FB8
:1061700033D1023E00963B463A4651462846FFF749
:1061800025FF50B3044624E0BBF1000F2BD00DF1E6
:10619000090251462846FFF77BFD95F8353004A9E2
:1061A0000433DAB251FA83F316F8021C03F8081C20
:1061B00016F8011C03F8071C0023009302326C6AD6
:1061C000D2B202A94846A0470446B0B11148FFF731
:1061D0002DFD00212846FFF715FEEB6A002B83D02A
:1061E0004846984780E716F8023C8DF8093016F8C3
:1061F000013C8DF80A300122DEE72846FFF770FDEA
:10620000023604460028E4D1023F8346A5E700BFDA
:106210000735220886352208F0B5164685B00546B2
:1062200000B9FEE700F12007F9B150238DF80C30DA
:1062300000230093446A012203A93846A04704467C
:1062400068B9009001238DF80C306D6A8DF80D60EF
:106250000346022203A93846A847044610B1054860
:10626000FFF7E4FC204605B0F0BD0121FFF7CAFDB1
:10627000E5E700BFB0352208F0B5044685B000B9A7
:10628000FEE7FFF78FFC0546002841D1656A05B996
:10629000FEE7236933B1A38A23B1A36913B1237F36
:1062A000002B5CD19F238DF808300323009301223B
:1062B00003AB02A904F12000A847054628BB9DF8BE
:1062C0000E30BDF80C20A281A373204600F002F925
:1062D00038BB604B217B1A461D798D424CD15E79CB
:1062E000657BAE4248D19E79A57BAE4244D118234E
:1062F000584313181258A2609A6822619A89A282A0
:106300001A691B7DA261237729E05348FFF78EFCB1
:1063100000232168514884F83430FFF787FC2E466B
:1063200088E0236D2361B4F84830A560012B14BFC9
:1063300001230223A382636DA36194F8583023776D
:1063400004F118012346DA6D32B1A06982423EBFE2
:10635000A26193F86020227708339942F3D1236930
:106360002BB1A28A1AB1A2690AB1227F52B93C4864
:10637000FFF75CFC0125CBE701301E2803F1180371
:10638000AAD1ECE7227B3749002011F83050954222
:1063900008D1354A52F8301041B934481946FFF750
:1063A00045FC08E001301228EFD1F6E7A268A2B15F
:1063B0002F48FFF73BFC2046FFF7B0FC06460028BD
:1063C00045D1A38A5B070DD5024601212046FFF780
:1063D00023FF054600289BD10AE026481A46FFF70E
:1063E00025FCE8E7E368244A23F07F43934224D066
:1063F0002369B3F1807F28D901212046FFF702FDF0
:106400000546002884D10090B7238DF80C30676AC8
:106410000346012203A904F12000B847054678B9D4
:10642000012384F8353001232168144884F834307E
:10643000FFF7FCFB304605B0F0BD02460146C5E75C
:106440000F491048FFF7F2FB62E70023E9E7054632
:106450005EE700BFDC382208D5352208E83622087E
:10646000FE352208B03B2208AC3B220891362208B8
:106470003836220866362208C2201600173722084E
:10648000B9362208BF362208024800234360FFF7CE
:10649000F3BE00BF600000001FB55A248DF808400D
:1064A0000C0C8DF809404CBAADF80A40FF248DF869
:1064B0000C4000B9FEE7B1F1807F00D3FEE7446AEB
:1064C00004B9FEE7009302A9134620300522A04735
:1064D00004B010BDF0B504468BB000B9FEE7002152
:1064E00080F84410082301AACDE90111FFF7D4FF79
:1064F00038B17648FFF79AFB21687548FFF796FB9D
:1065000052E09DF80430532BF6D19DF80530462B10
:10651000F2D19DF80630442BEED19DF80730502B78
:10652000EAD19DF809109DF8082084F84620012939
:1065300084F8451003D96748FFF778FBDCE70823A8
:10654000CDE9010001AA19462046FFF7A5FF08B1D1
:106550006148CFE79DF806109DF805209DF80730AB
:106560009DF808609DF809709DF80A50012901D92D
:106570005A48E1E7082B04D859481946FFF756FB5B
:10658000BAE70021202202A8019118F037FB290464
:1065900041EA0721242301AA31432046FFF77CFF6B
:1065A00020B15048FFF742FB002067E09DF805301E
:1065B00084F84B309DF8043003F00302012A04D024
:1065C000032A01D04848EDE7024613F0040F84F88F
:1065D0004A2014BF4FF480720122A4F848201A0701
:1065E00012D4012384F84C309DF80630C3F34103E4
:1065F000012B14D0022B4FF0000211D0002B3FD002
:106600003A48A4F84E20CDE7DB064FF0000254BF15
:106610005023062384F84C2084F84D30E4E71A46D2
:10662000012384F84E209DF80B2084F84F30D209C6
:10663000029B27D1DB08013300222365154601ABFD
:106640000127197F49B104EBC20607FA01F1716510
:106650000132597F86F85810D2B20135042D03F16A
:106660000203EED123465A6D0130C0B25ABB042852
:1066700003F10803F7D1012084F844000BB0F0BD0A
:106680000122CEE723F00043232B03D9002318482F
:10669000236587E7033B02FA03F3CDE7D56D65B1C8
:1066A0005E6DB54209D25D6593F8587092F86050FE
:1066B00083F85850D66582F860700131C9B208324B
:1066C0000429EBD1D3E71A460146F9E73C3C2208FE
:1066D0003A3E22085B3C2208933C2208C93C22082F
:1066E0001F3D2208663D22089D3D2208D43D220818
:1066F000F53D2208034690F8440030B500B9FEE7A6
:106700005C6DB1FBF4F004FB101070B9032054333E
:1067100053F8304034B1944204D8B1FBF4F504FB93
:1067200015141CB110B10138F2E7002030BDEFF3B1
:10673000108072B6704710B962B6BFF36F8F7047A2
:10674000EFF311800C2383F31188704780F31188D5
:10675000BFF36F8F7047034638B10020814204D0E9
:106760001A5C02B970470130F8E770474FF0FF310B
:10677000FFF7F1BF40B1054A1378012B04D803702D
:106780000133137000207047012070476D880000AE
:1067900008B51AF0BDFB002008BD08B500F013F8DD
:1067A00000F058F8FEE770477047704708B5FBF7F0
:1067B00024F8FBF732F8FBF739F8FBF738F8BDE8B7
:1067C0000840FBF735B808B5FFF7EDFF03F06AFAAC
:1067D00000F016F9FFF7E8FF00F0F2FA00F007F812
:1067E000FBF718F8BDE8084000F01AB8704708B584
:1067F000FAF7FFFFFAF7FEFFFAF7FDFFFAF7FCFFE3
:10680000FFF7F4FF08BD000008B5FAF787FF034B58
:106810001868BDE8084000F08ABB00BF708800001F
:1068200030B5094D0FCD8BB001AC0FC40FCD0FC4E7
:106830002B680648236001AA002100F00FFB044BDF
:1068400018600BB030BD00BF983E220809782008C0
:1068500070880000FAF7DFBF0020704700230B703C
:106860007047000030B50E4C416123688BB9206041
:1068700083600DE0891A9A6841611D466AB113462A
:106880005A698A42F6D935B1A860521A83605A61B2
:1068900030BD0025F4E72060F7E798608260F7E7F5
:1068A0008488000038B508F027FA094C094B1A68AB
:1068B00023680025C31A2AB123B15169994203D331
:1068C000C91A5161206038BD55615B1A9268F2E7C0
:1068D000808800008488000038B5154D2B682BB3E4
:1068E0005B69A3B1134A146802201C4408F00EFA35
:1068F000204608F015FA10492A6800230B7022B1CF
:10690000D08880070AD501230B70002038BD0220F3
:1069100008F0FCF9022008F057FAECE79268002A28
:10692000F3D050690344012BEAD9EEE72220EDE7CA
:1069300084880000808800007C88000070B51646BE
:106940009DF814200271049A0260C0E90336002207
:10695000BDF81830826004460D46C380EEB908F0D9
:10696000CBF92844A0619DB12E46FFF7E0FE054615
:10697000FFF798FF31462046FFF774FF104B1B6866
:10698000A34201D1FFF7A8FF2846FFF7D4FE02E09B
:10699000E36865617BB9002070BD08F0ADF9304453
:1069A000A061002DE0D1E3686561002BDDD0216896
:1069B00020469847D9E7216820469847EBE700BF73
:1069C000848800000D490B6898B100229BB1834276
:1069D00003D1836822B90B6003E01A469B68F5E790
:1069E000936083681BB15A6941690A445A61002067
:1069F0007047222070470220704700BF8488000043
:106A000070B5154EFFF79CFE34780546FCB9134B64
:106A10001C60134B1C60134B1C6008F027F901200D
:106A200008F074F908F00EFA0F4B0246186020B90E
:106A30002846FFF78BFE232070BD23460B4840F20B
:106A4000E73116F093FE0A4B186001233370284695
